:0600000002006B021697DE
:03000B0002191CBB
:030013000216EAE8
:01001B0032B2
:030023000215FFC4
:03002B00021F862B
:01003300329A
:03003B0002173D6C
:030043000215C0E3
:01004B003282
:0300530002164B47
:01005B003272
:03006300021F84F5
:03006600021791ED
:02006900E4733E
:0D006B0075813F122284E582600302006669
:100078007925E94400601B7A019025BC78AC75A00D
:1000880001E493F2A308B8000205A0D9F4DAF275E6
:02009800A0FFC7
:06009A00E478FFF6D8FD3A
:1000A0007800E84400600A799475A000E4F309D868
:1000B000FC7818E84401600C7902900094E4F0A305
:0400C000D8FCD9FA95
:1000C4009000EDE4F09000EFF0A3F0A3F0A3F09023
:1000D40000F374C8F0E4A3F09000F5F0A3F0A3F0EB
:1000E400A3F09000F9F0A3F0A3F0A3F09000FDF0CA
:1000F4009000FFF0A3F0A3F0A3F090010CE4F090C3
:0B010400010DF0A3F090010FF0A3F03C
:02011000C2012A
:0E0112007808E4F608F608F608F6780C760091
:02012000C20516
:02012200C20613
:0301240002006670
:10012800120B8E90012A7402F075820F1217A0121A
:1001380006B075820F121857E58260F6221206FF84
:10014800900094E0FFBF02030201CA0201567582C3
:100158000F121857AF829000EEEFB40100E433F0AD
:1001680012199CAC82AD83AEF0FF9000EEE0FB90DC
:1001780000EDE0FAEBB5020122C0039000EFE0F8D1
:10018800A3E0F9A3E0FAA3E0FBECC398F8ED99F932
:10019800EE9AFAEF9BFBC3740A98E499E49AE49BFD
:1001A800D003501D9000EFECF0EDA3F0EEA3F0EFBC
:1001B800A3F09000EDEBF0900103E4F08B820204D1
:1001C800172275820F121857AF829000FEEFB40104
:1001D80000E433F012199C85821085831185F01292
:1001E800F5139000FEE0FB9000FDE0FAEBB502038A
:1001F80002033CC0039000FFE0F8A3E0F9A3E0FA93
:10020800A3E0FBE510C398F8E51199F9E5129AFA0D
:10021800E5139BFBC3740A98E499E49AE49BD00322
:10022800400302033C9000FDEBF09000FFE510F066
:10023800E511A3F0E512A3F0E513A3F0EB700302B8
:1002480002FC9000F5E0F8A3E0F9A3E0FAA3E0FBD4
:100258009000F5E0F5F0A3E042F0A3E042F0A3E05F
:1002680045F0704E9000F9E0F5F0A3E042F0A3E00D
:1002780042F0A3E045F0703A9000F3E0FEA3E0FFFF
:10028800E4FDFCEE2510FEEF3511FFED3512FDEC17
:100298003513FC9000F5EEF0EFA3F0EDA3F0ECA31E
:1002A800F09000F9EEF0EFA3F0EDA3F0ECA3F0026C
:1002B800036DE8494A4B700302036D9000F9E0F5BD
:1002C800F0A3E042F0A3E042F0A3E045F07003029F
:1002D800036D9000F5E4F0A3F0A3F0A3F09000F90B
:1002E800F0A3F0A3F0A3F090010304F075820112CB
:1002F800041780719000F9E0F5F0A3E042F0A3E064
:1003080042F0A3E045F060149000F9E510F0E51123
:10031800A3F0E512A3F0E513A3F08049900103745C
:1003280001F07582001204179000F3745EF07401F6
:10033800A3F080319000FEE0602B9000F9E0F5F02A
:10034800A3E042F0A3E042F0A3E045F0601790007C
:10035800F974012510F0E43511A3F0E43512A3F087
:10036800E43513A3F09000F5E0FCA3E0FDA3E0FE64
:10037800A3E0FF9000F5E0F5F0A3E042F0A3E0422F
:10038800F0A3E045F06024C3E5109CE5119DE5125B
:100398009EE5139F40159000F5E4F0A3F0A3F0A3A9
:1003A800F0900103F07582011204179000F5E0F552
:1003B800F0A3E042F0A3E042F0A3E045F0704F90D4
:1003C80000F9E0FCA3E0FDA3E0FEA3E0FF9000F944
:1003D800E0F5F0A3E042F0A3E042F0A3E045F060CE
:1003E8002DC3E5109CE5119DE5129EE5139F401E67
:1003F8009000F9E4F0A3F0A3F0A3F0900103F075E6
:1004080082001204179000F374C8F0E4A3F022E508
:1004180082900104F0E0700122900103E060067E02
:10042800317F0080047E097F00EE2494F582E43455
:1004380000F583E0FFC4035407FDEE042494F5821D
:10044800E43400F583E0FC8C14E4F515F516F51793
:1004580074022E2494F582E43400F583E0F88818B9
:10046800751900751A00751B008515178514167502
:100478001400751500AC1AAB19AA18E4F82514F580
:1004880018EA3515F519EB3516F51AEC3517F51B7D
:1004980074032E2494F582E43400F583E0F9E4FA39
:1004A800FBFCE92518F514EA3519F515EB351AF5AD
:1004B80016EC351BF51790010574042EF07E00C369
:1004C800EE9D400122C005C007C006C005120DCB35
:1004D800D005D006D0077404C39EF5F005F0EF8070
:1004E80002C313D5F0FB5401F518EE75F006A4FD10
:1004F8008DF005F0A814AB15AC16AD17800DC3ED43
:1005080013FDEC13FCEB13FBE813F8D5F0F05300E4
:100518003F900105E0FD28F8FC1C900106EDF090E5
:100528000107ECF0851882C007C006C005C000129C
:10053800054DD000D005D006D007900105E8F00E93
:10054800D0050204C7E582900108F0900095E0FF0D
:10055800900096E0FE900108E0FDBD00030205F959
:10056800BD01028003020656900106E0FD900107D6
:10057800E0FC8D03C3EC9B4051C006EB2494F5824C
:10058800E43400F583E0F582C007C006C005C00466
:10059800C003120C4DD003D004D005D006D0078F6D
:1005A8000079007A007E00888289838AF0EEC0078D
:1005B800C006C005C004C0031219D9D003D004D0A6
:1005C80005D006D0070BD00680AAC3EC9D500302C5
:1005D8000656EC2494F582E43400F583E0F582C0F5
:1005E80006C005C004120D37D004D005D0061C8003
:1005F800D9900106E0FD900107E0FCC3EC9D404E58
:10060800ED2494F582E43400F583E0FBBBFF02801F
:100618003DEB603A8B82C007C006C005C004120DCE
:10062800E4D004D005D006D0078F0079007A007B8B
:1006380000888289838AF0EBC007C006C005C00421
:100648001219D9D004D005D006D0070D80AD7F008F
:100658007D007C008E828F838DF0EC0219D9E582B3
:1006680090010AF0E0FFF582C0071215B0AE82D003
:1006780007900109E0FDEEB5050122900129EDF092
:100688008F8202157A7F00BF5900501BEF2494F522
:1006980082E43400F583E0900109F08F82C00712EC
:1006A8000666D0070F80E0227F00BF59005024EF74
:1006B8002494FDE43400FE8F82C007C006C00512F2
:1006C80015B0AC82D005D006D0078D828E83ECF0B1
:1006D8000F80D722E58290010BF0E0FFBF30009237
:1006E800004007EF24C692005004C2008002D200E6
:1006F800A200E433F58222120B2FE5827001221248
:100708000B36AF8290010CE0FE24FB40EAEE2E2E61
:1007180090071C7302072B02073602075F0207B80F
:100728000207E5BF7BD190010C7401F080C98F826C
:10073800C0071206DCE582D00760BC8F057E00ED9D
:1007480024D0FDEE34FFFE90010DEDF0EEA3F09005
:10075800010C7402F080A08F82C0071206DCE582CB
:10076800D007603B90010DE0FDA3E0FEC007C00587
:10077800C00690000A121BB4AD82AE8315811581A4
:10078800D0078F037C00EB24D0FBEC34FFFCEB2D6F
:10079800FDEC3EFE90010DEDF0EEA3F00206FFBF6A
:1007A8003A0280030206FF90010C7403F00206FF70
:1007B8008F82C0071206DCE582D00770030206FFAD
:1007C8008F057E00ED24D0FDEE34FFFE90010FED85
:1007D800F0EEA3F090010C7404F00206FF8F82C0C3
:1007E800071206DCE582D007603B90010FE0FDA30D
:1007F800E0FEC007C005C00690000A121BB4AD8217
:10080800AE8315811581D0078F037C00EB24D0FBC4
:10081800EC34FFFCEB2DFDEC3EFE90010FEDF0EE0D
:10082800A3F00206FFBF7D0280030206FF90010CC1
:10083800E4F090010DE0FEA3E0FF90010FE0FCA3BF
:10084800E0FD900111ECF0EDA3F08E828F83120889
:100858005C0206FFAF83E582900113F0EFA3F090EE
:100868000113E0FEA3E0FFC3EE9459EF940050217A
:10087800900111E0FCA3E0FD8C028D03C374FF9A84
:10088800E49B400DEE2494F582EF3400F583ECF000
:1008980022900113E0FEA3E0FFBEE766BF0363906A
:1008A8000111E0FEA3E0FFBE0005BF00028008BE04
:1008B8000150BF004D800302068D7F00BF590050D4
:1008C80038EF70057D5BFE80047D2C7E008D82C034
:1008D800071209EDD007EF2494F582E43400F5837C
:1008E800E0FE7D007C007B008E828D838CF0EBC067
:1008F80007121B3BD0070F80C375825D1209ED02FA
:0309080009D522EC
:10090C009001B5E4F0C201227F00C3E5DB940792AD
:10091C000240067D077E008004ADDB7E008F037CE9
:10092C0000C3EB9DEC64808EF063F08095F0501763
:10093C00EF24AEFDE43401FE8F82758300E0FC8D64
:10094C00828E83F00F80C3227F008F057E00C3ED63
:10095C009407EE940050188F057E00EF24AEF582BC
:10096C00E43401F583E0FC8D828E83F00F80DB9004
:10097C00000722900002E0FF9001B7F0E020E03089
:10098C009001AEE0FCA3E0FDA3E0FEA3E0FFBCB051
:10099C001FBD041CBE0019BF001675E200C2AF904B
:1009AC00C350121A8A90C350121A8A12380080FE51
:1009BC0022900115E4F09001B7E0600690011574E7
:1009CC0001F0900115E0F582222001149001B8E0AD
:1009DC00FFE0600C8FD553D4FCD2019001B8E4F049
:1009EC0022E582900116F09001B7E0605B7E007FFB
:1009FC00003001200EBE00010F900005C007C0069C
:100A0C00121A8AD006D007C3EE9450EF94C340E17B
:100A1C00758200229001B8E0FFBF400050257E0097
:100A2C0074402FFFE43EFEEF2414FFEE3400FE90E2
:100A3C000116E08F828E83F09001B8E02401F075EE
:100A4C008201221209D580A575820022AFF0AE83F7
:100A5C00E582900119F0EEA3F0EFA3F09001B7E05E
:100A6C007003020B2B900117E0FEA3E0FFC3E49E82
:100A7C0074808FF063F08095F04003020B2B7E00A6
:100A8C007F003001200EBE00010F900005C007C092
:100A9C0006121A8AD006D007C3EE9450EF94C340C6
:100AAC00E175820022900119E0FDA3E0FEA3E0FFB6
:100ABC00900117E0FBA3E0FCC3E49B74808CF06313
:100ACC00F08095F0509F9001B8E0FABA4000504980
:100ADC008A017A00744029F9E43AFAE92414F9EA13
:100AEC003400FA8D828E838FF012214CF8A3AD82E4
:100AFC00AE83900119EDF0EEA3F0EFA3F089828A9A
:100B0C0083E8F09001B8E02401F01BBBFF011C90BE
:100B1C000117EBF0ECA3F0809F1209D5020A717556
:100B2C008200229001B5E0F582229001B5E07003BD
:100B3C00F582229001B6E02414F582E43400F583AA
:100B4C00E0FF9001B6E004F09001B5E014F0E07025
:100B5C000353D4F38F822275D50074FC55D4440210
:100B6C00F5D4C2012230DE199001B5E5DBF090011D
:100B7C00B6E4F09001B5E0600874F355D44408F580
:100B8C00D42212151712154112153075DD0075D3CC
:080B9C000075D50075D7002299
:100BA40075D70074FC55D64402F5D69001B9E4F02B
:100BB400227E007F009001B9E060200EBE00010F8C
:100BC400900005C007C006121A8AD006D007C3EEEB
:100BD4009450EF94C340DE758200227F00BF08006A
:100BE40050278F057E0074402DFDE43EFEED24A0C9
:100BF400FDEE3400FEEF24BAF582E43401F583E01F
:100C0400FC8D828E83F00F80D475D7089001B9745F
:100C140001F053D6FC75820122E58290011DF0E0BB
:100C24009001BAF09001BBE4F090011CE09001BC8B
:100C3400F09001BDE4F09001BEF09001BFF090018E
:100C4400C0F09001C1F0020BB5E58290011EF0E006
:100C5400FFBF8800400B8F06EE247890011EF080C1
:100C64004EBF800040269001BAE0FE8F05ED24803F
:100C7400F5F005F07401800225E0D5F0FBFD420695
:100C84009001BAEEF090011EE4F08023EF902375FA
:100C94009390011EF0E0FF7003F58222EF30E70F1E
:100CA4009001BAE04402FEF090011E747F5FF09060
:100CB40001BCE0FF90011EE0FEEFB50603020D301B
:100CC4009001BDE0FFB5060280629001BEE0FFB571
:100CD400060280589001BFE0FFB50602804E9001E5
:100CE400C0E0FFB5060280449001C1E0FFB50602F2
:100CF400803A90011F7402F07F02EF24BAFDE434BD
:100D040001FE8D828E83E0700C90011EE0FC8D82CA
:100D14008E83F0800B0F90011FEFF0BF080040DAC4
:100D240090011FE0FFBF080475820022120BB57505
:100D3400820122E582900120F0E0FFBF8800400B91
:100D44008F06EE2478900120F0804FBF800040276A
:100D54009001BAE0FE8F05ED2480F5F005F07401F2
:100D6400800225E0D5F0FBF4FD52069001BAEEF0C6
:100D7400900120E4F08023EF90237593900120F0FC
:100D8400E0FF7003F58222EF30E70F9001BAE054E0
:100D9400FDFEF0900120747F5FF0900120E0FF7E63
:100DA40002EF6016EE24BAFCE43401FD8C828D83DC
:100DB400E0B507068C828D83E4F00EBE080040E1A6
:100DC400120BB5758201227F00BF0800500FEF247B
:100DD400BAF582E43401F583E4F00F80EC020BB53C
:100DE400E582900121F0E0FFF582C007120C4DAEC0
:100DF40082D0078F82C006120D37D0068E822290D1
:060E040000A0E0F58222CF
:100E0A00900128E5DBF0E0FFBF0802800302132C03
:100E1A00900007E0FE7F00900006E07C004207ECAD
:100E2A004206900122EFF0EEA3F0900128E4F09040
:100E3A000001E0FD900124F0900000E05460605849
:100E4A00900000E0FC5304607B00BC2005BB00025C
:100E5A00800FBC403ABB003790012874FFF00213A0
:100E6A0032BD2003021332BD21028005BD22178044
:100E7A000F120954AB82AC83900128EBF0021332B3
:100E8A0012097F02133290012874FFF00213329084
:100E9A00012874FFF0021332EDFC24F4500302130C
:100EAA0024EC240A83F582EC241083F583E473F797
:100EBA00FA24CE24BAD124C9EE32321210131113F5
:100ECA00100E1310101313900003E0FDBD010280F1
:100EDA0013BD0202802ABD03028041BD2203020F14
:100EEA00F102101A90012674F5F07423A3F09024ED
:100EFA0007E493FC740193FD900128ECF0021020A2
:100F0A009001267409F07424A3F09024B2E493FCAF
:100F1A00740193FD900128ECF0021020900002E089
:100F2A00701C90012674B4F07424A3F09024B8E4E1
:100F3A0093FC740193FD900128ECF00210209000BC
:100F4A0002E0FDBD011C900126740AF07425A3F08D
:100F5A0090251AE493FC740193FD900128ECF002A9
:100F6A001020900002E0FDBD021C90012674C8F01A
:100F7A007424A3F09024E0E493FC740193FD90019F
:100F8A0028ECF0021020900002E0FDBD031B900146
:100F9A002674BAF07424A3F09024C6E493FC740176
:100FAA0093FD900128ECF0806D900002E0FDBD04F5
:100FBA001B90012674E2F07424A3F0902508E493B0
:100FCA00FC740193FD900128ECF0804A900126748C
:100FDA00BAF07424A3F09024C6E493FC740193FD40
:100FEA00900128ECF0802F900002E0701B900126FF
:100FFA00746FF07424A3F090246DE493FC7401934D
:10100A00FD900128ECF0800E90012874FFF0800614
:10101A0090012874FFF0900128E0FDBDFF03021340
:10102A00328D047D00C3EC9FED9E5008900122ECA6
:10103A00F0EDA3F0900122E0FEA3E0FF8E048F05FD
:10104A00C3EC9408ED9400920340067C087D00806E
:10105A00048E048F05900128ECF07F00C3EF9C50AA
:10106A001F8F057E00900126E0FAA3E0FBEF2AF528
:10107A0082E43BF583E493FB8D828E83F00F80DC60
:10108A008C067F00900122E0FBA3E0FDEBC39EFBF0
:10109A00ED9FFD900122EBF0EDA3F0900126E0FE1A
:1010AA00A3E0FF900126EC2EF0E43FA3F0021332F6
:1010BA00900002E0FF900122F0E4A3F002133290C4
:1010CA000125E0900000F0900122E0FEA3E0FFC3BA
:1010DA00EE9401EF94005003021332900128740138
:1010EA00F0021332900002E0FF900125F002133261
:1010FA00900000E0541F7037900003E0FE7F0090DC
:10110A000002E0FD7C004207EC4206BF0118BE0067
:10111A0015902410E493FF30E5030213329001285E
:10112A0074FFF002133290012874FFF00213329018
:10113A000000E0FF53071F7E00BF0205BE000280C9
:10114A00028078900004E0FFBF0102805FBF0202C4
:10115A008049BF03028033BF0402801DBF81028021
:10116A0040BF8202802ABF83028014BF844474BCB9
:10117A0055DE4402F5DE02133253DE730213327473
:10118A00BC55D64402F5D602133253D67302133233
:10119A0074BC55D44402F5D402133253D4730213E7
:1011AA003274BC55D24402F5D202133253D27302BE
:1011BA00133290012874FFF002133290012874FF51
:1011CA00F0021332900000E0541F7037900003E0E1
:1011DA00FE7F00900002E0FD7C004207EC4206BF61
:1011EA000118BE0015902410E493FF30E5030213A2
:1011FA003290012874FFF002133290012874FFF034
:10120A00021332900000E0FF53071F7E00BF020561
:10121A00BE000280030212EF900003E0FE7F0090FE
:10122A000002E0FD7C004207EC4206EF4E6003023A
:10123A0012E7900005E0FE7F00900004E0FD7C00CC
:10124A004207EC4206BF0106BE00030212D7BF02E4
:10125A0005BE00028063BF0305BE00028047BF04CB
:10126A0005BE00028029BF8105BE00028055BF82EB
:10127A0005BE00028039BF8305BE0002801CBF8400
:10128A0054BE005174BF55DE4403F5DE02133274B6
:10129A007F55DE440CF5DE02133274BF55D6440383
:1012AA00F5D6021332747F55D6440CF5D68079747C
:1012BA00BF55D44403F5D4806F747F55D4440CF5DC
:1012CA00D4806574BF55D24403F5D2805B747F55D0
:1012DA00D2440CF5D290012874FFF0804B9001287B
:1012EA0074FFF0804390012874FFF0803B90000067
:1012FA00E4F0900001F0900122E0FEA3E0FF8E04EA
:10130A008F05C3EC9402ED94004008900128740202
:10131A00F08015900128EEF0800E90012874FFF0FD
:10132A00800690012874FFF0900128E0FFBFFF0AB1
:10133A0090012474FFF075DCCF22EF24F740068F6A
:10134A00DD75DCC02275DD0075DCC022900124E069
:10135A00FFBF05030213E3BF060280030213F790DF
:10136A000122E0FEA3E0FF8E048F05C3EC9408ED92
:10137A009400920440067C087D0080048E048F0548
:10138A007F00C3EF9C501F8F057E00900126E0FA74
:10139A00A3E0FBEF2AF582E43BF583E493FB8D821D
:1013AA008E83F00F80DC8C067F00900122E0FBA385
:1013BA00E0FDEBC39EFBED9FFD900122EBF0EDA358
:1013CA00F0900126E0FEA3E0FF900126EC2EF0E467
:1013DA003FA3F08CDD63DC4022E5E35480FF9001FB
:1013EA0022E0FDA3E0ED4FF5E375DC022275DD0096
:1013FA0075DC0222900124E0FFBF200D30DE1012BE
:10140A00091475DD0085DCDC2275DD0043DC02226F
:10141A0075D30074FC55D24402F5D2229001C274ED
:10142A0001F075D30853D2FC7582012220D9030238
:10143A0014F2E5D9540FFFADD95305307E00BD0033
:10144A0005BE0002801CBD1005BE0002803FBD2003
:10145A0005BE0002804DBD3006BE00030214D7024D
:10146A0014F0EFFE24FB50030214F0EE2E2E90141B
:10147A007C7302148B0214F00214910214F0021409
:10148A00F01213FE0214F0120B710214F0EFFE2494
:10149A00FB4053EE2E9014A373804B804980478003
:1014AA00458043EFFE24FB403DEE2E9014B9738035
:1014BA0008800B800E8011802D121356802812147A
:1014CA001A8023120B63801E120BA48019EFFE24CC
:1014DA00FB4013EE2E9014E3738008800980078086
:1014EA00058003120E0AC2D930D81575DC0275D2EE
:1014FA001275D41275E300C2DAC2D9C2D812090C25
:10150A0010DA0122E5DA20E20375D8FF2275E2003B
:10151A0053E27F43E22975E30053E2BF53D1FB75DF
:10152A00D18043D1012243E10443E10243E1014373
:10153A00D81FD2EAD2AF227E007F008EEC8FED7EDA
:10154A000A7F008EEE8FEF7E147F008EE48FE57E99
:10155A00A07F008EE68FE775EB0C43EB4043EB80F0
:10156A0075D21275D41275D61275EA4075DC02224C
:10157A00AF82BF800040012275A15575A1AA43B16F
:10158A000475A1007585C0EF2FF584900129E0F557
:10159A008EE58630E60375869A75A15575A1AA531C
:1015AA00B1FB75A10022AF827585C0EF2FF5847556
:0615BA00868E858E822260
:1015C000C021C0E0C0F0C082C083C007C006C00513
:1015D000C004C003C002C001C000C0D075D000125A
:1015E0001436D0D0D000D001D002D003D004D00522
:1015F000D006D007D083D082D0F0D0E0D02132C046
:1016000021C0E0C0F0C082C083C007C006C005C0D2
:1016100004C003C002C001C000C0D075D000309823
:1016200005122168C2983099051221A8C299D0D01C
:10163000D000D001D002D003D004D005D006D0070E
:10164000D083D082D0F0D0E0D02132C021C0E0C021
:10165000F0C082C083C007C006C005C004C003C07C
:1016600002C001C000C0D075D00030C0051221F604
:10167000C2C030C105122236C2C1D0D0D000D001C4
:10168000D002D003D004D005D006D007D083D082BA
:10169000D0F0D0E0D02132C021C0E0C0F0C082C084
:1016A00083C007C006C005C004C003C002C001C09B
:1016B00000C0D075D0009001C5E0FEA3E0FFC007D8
:1016C000C0068E828F83120069D006D007D0D0D09A
:1016D00000D001D002D003D004D005D006D007D06E
:1016E00083D082D0F0D0E0D02132C021C0E0C0F061
:1016F000C082C083C007C006C005C004C003C002CA
:10170000C001C000C0D075D0009001C7E0FEA3E0CA
:10171000FFC007C0068E828F83120069D006D007F3
:10172000D0D0D000D001D002D003D004D005D00654
:10173000D007D083D082D0F0D0E0D02132C021C0F9
:10174000E0C0F0C082C083C007C006C005C004C0AE
:1017500003C002C001C000C0D075D0009001C3E03A
:10176000FEA3E04E600E9001C3E0F8A3E0F583888D
:1017700082120069D0D0D000D001D002D003D004B2
:10178000D005D006D007D083D082D0F0D0E0D021D1
:1017900032121AC512012812014580FB75820022FF
:1017A000E582FF90256C93FEEF90254493FF700136
:1017B0002290012AE0FD701BBF0209EEF4FC529258
:1017C000EC529322BF0402800122EEF4FC5296EC0C
:1017D000529722BD0214BF0207EE4292EE429322BC
:1017E000BF0439EE4296EE429722BD0116BF0208B1
:1017F000EEF45292EE429322BF0421EEF45296EEA2
:10180000429722BD0316BF0208EE4292EEF45293B5
:1018100022BF0408EE4296EEF4FE529722AF82BF3A
:101820000102800FBF02028013BF03028017BF04B2
:1018300025801BE5C620E21E539DFB22E5C620E362
:1018400015539DF722E5C630E20C539DFB22E5C6F9
:1018500030E303539DF722E582FF90251C93FEEFB2
:1018600090256C93FDEF90254493FF7003F5822241
:10187000EE600D8E82C007C00512181DD005D0077E
:101880007E00BF0202800ABF03028009BF040C80F1
:1018900008AE908006AEA08002AEB0ED5E6004752A
:1018A00082012275820022E582FF90251C93FEEFC3
:1018B00090256C93FDEF90254493FFEE600D8E8292
:1018C000C007C00512181DD005D007A2AFE433FE33
:1018D000C2AFBF0202800ABF03028017BF04368076
:1018E0002490012BE07007EDF4FF52908027ED4229
:1018F00090802290012BE07007EDF4FF52A080153C
:10190000ED42A0801090012BE07007EDF4FF52B083
:0B1910008003ED42B0EE6002D2AF2277
:10191C00C0D075D00808B8000D09B900090ABA0082
:10192C00050BBB00010CD0D032A2AFC2AFA808A9E6
:10193C0009AA0AAB0BAC8A8588F092AF30F5127409
:10194C00012C600D08B8000909B900050ABA00019C
:10195C000BC3EC9406FCECC313FC75F07DE8A4F807
:10196C00ADF075F07DE9A42DF9E435F0FD75F07D51
:10197C00EAA42DFAE435F0FD75F07DEBA42DFB7D8A
:10198C0000EC28F582E93DF583EA3DF5F0EB3D22CC
:10199C00A2AFC2AFA808A909AA0AAB0BAC0C92AFB4
:1019AC0075F020E8A4A8F075F020E9A428F582A829
:1019BC00F075F020EAA428F583A8F075F020EBA4CC
:1019CC0028F9A8F075F020ECA42889F02285822251
:1019DC0085832385F024F525121935858226858388
:1019EC002785F028F529E522452345244525700156
:1019FC0022A822A923AA24AB2585262A85272B8554
:101A0C00282C85292DE8494A4B60DBC003C002C055
:101A1C0001C000121935AC82AD83AEF0FFD000D0FE
:101A2C0001D002D003ECC3952AFCED952BFDEE956D
:101A3C002CFEEF952DFFC3EC94E8ED9403EE94008F
:101A4C00EF940040A118B8FF0919B9FF051ABAFFA5
:101A5C00011B882289238A248B2574E8252AF52AE0
:101A6C007403352BF52BE4352CF52CE4352DF52DA5
:101A7C00852A26852B27852C28852D298087AE82C3
:101A8C00AF83C374019EE49F40022200C374029E84
:101A9C00FE74009FFF00BE0005BF00020022000084
:101AAC000000000000000000000000000000000E1C
:101ABC00BE00EB0FBF00ED002275A15575A1AA74F5
:101ACC00F855B94406F5B975A100901388121A8A15
:101ADC00759E5D759D0074F055894402F58953C956
:0D1AEC00EF758C06C28DD2A9D28CD2AF222C
:101AFA0022AC82AD83AEF0FF90013AECF0EDA3F098
:101B0A00EEA3F0EFA3F09009ED021D3FAC82AD8386
:101B1A00AEF0FF90012CE0FB900164ECF0EDA3F035
:101B2A00EEA3F0EFA3F0900168EBF09009ED021E2E
:101B3A008CAC82AD83AEF0FF900136ECF0EDA3F0F1
:101B4A00EEA3F0EFA3F09009ED021D12AC82AD8373
:101B5A00AEF0FF90012DE0FB900164ECF0EDA3F0F4
:101B6A00EEA3F0EFA3F0900168EBF09009ED021EEE
:101B7A008CAD82AE83AFF0900133EDF0EEA3F0EFBF
:101B8A00A3F09009ED021CB0AD82AE83AFF09001D4
:101B9A002EE0FC90012FEDF0EEA3F0EFA3F0900100
:091BAA0032ECF09009ED021C522E
:101BB400C01C85811CC082C083E5812405F581AFEA
:101BC4001C0FE51C2403F8A607087600087640E5F8
:101BD4001C24FCFD7E007F40E51C2406F9A81C089B
:101BE4008604E51C24FCF886038CF0EBA4F709A713
:101BF400F0E51C240604F98704A81C088603740174
:101C04002DFAE43EFE8A828E838FF012214C8BF0F3
:101C1400A4FBE51C2403F8740126FDE40836FE0841
:101C240086078D828E838FF012214CFDE51C24FCE7
:101C3400F886078DF0EFA42B2CF7E51C2406F98712
:101C4400060987078E828F83851C81D01C22AE8271
:101C5400AF8390012FE0FBA3E0FCA3E0FD7A0090AA
:101C64000132E0F9890019E8603F8B828C838DF0A2
:101C740012214CF8A3AB82AC83C007C006C005C0D8
:101C840004C003C002C001121C908007C006C00734
:101C9400888222A882D001D002D003D004D005D0FB
:101CA40006D007E860030A80BB8A8222AE82AF8333
:101CB400900133E0FBA3E0FCA3E0FD900133E0F5E9
:101CC400F0A3E045F07003F582227A008B828C83C6
:101CD4008DF012214CF9A3AB82AC83E9F8602CC0DF
:101CE40007C006C005C004C003C002121CF480076C
:101CF400C006C007888222A982D002D003D004D0B3
:101D040005D006D007E960030A80C18A8222AE8228
:101D1400AF83900136E0FAA3E0FBA3E0FCA3E0FD6F
:101D240090013EEAF0EBA3F0ECA3F0EDA3F09001F8
:101D340042740AF08E828F83021DA3AE82AF839019
:101D4400013AE0FAA3E0FBA3E0FCA3E0FD90016408
:101D5400EAF0EBA3F0ECA3F0EDA3F0900168740AB1
:101D6400F08E828F83021E8CAE82AF83C007C006C2
:101D7400121D798008C006C00775820D22AD82D07D
:101D840006D007C007C005121D908008C006C00712
:101D940075820A22AE82D005D007EE2DF582228507
:101DA400822E85832F900163E4F0900142E0FDBD13
:101DB40002005006900142740AF0900142E0F530AE
:101DC4007B637C0190013EE0F531A3E0F532A3E0B2
:101DD400F533A3E0F5348530357536007537007575
:101DE4003800C004C003C035C036C037C0388531A0
:101DF400828532838533F0E534121F88A882E58119
:101E040024FCF581C000C035C036C037C0388531E8
:101E1400828532838533F0E53412204AAA82AD8369
:101E2400AEF0FFE58124FCF581D000D003D004900E
:101E3400013EEAF0EDA3F0EEA3F0EFA3F01BBBFF2D
:101E4400011C8B068C07B80A005008880574302DD5
:101E5400FD8004743728FD8E828F83EDF090013E5F
:101E6400E0F5F0A3E042F0A3E042F0A3E045F06027
:101E740003021DC8900133EBF0ECA3F0E4A3F0855A
:101E84002E82852F83021CB085823985833A900186
:101E940068E0FD701B900164E0F9A3E0FAA3E0FBA5
:101EA400A3E0FC121EAC8007C039C03A898222220A
:101EB400BD0A028003021F59900164E0F9A3E0FA0D
:101EC400A3E0FBA3E0FC30E76FC004C003C002C082
:101ED40001121EDA8008C039C03A75822D22A88208
:101EE400D001D002D003D004883B900164C3E499AC
:101EF400F0E49AA3F0E49BA3F0E49CA3F0900164C3
:101F0400E0F53CA3E0F53DA3E0F53EA3E0F53F900A
:101F1400013EE53CF0E53DA3F0E53EA3F0E53FA33B
:101F2400F0900142740AF0853982853A83121DA328
:101F3400AF82E53B2FF5822290013EE9F0EAA3F05F
:101F4400EBA3F0ECA3F0900142740AF0853982858A
:101F54003A83021DA3900164E0FBA3E0FCA3E0FE2E
:101F6400A3E0FF90013EEBF0ECA3F0EEA3F0EFA3AF
:0F1F7400F0900142EDF0853982853A83021DA37A
:011F8400322A
:011F86003228
:101F8800C01C85811CAC82AD83AEF0FF05817B004F
:101F9800A81C087600E51C24FAF8080808E623546B
:101FA80001FA704CE51C24FAF8E626F608E633F642
:101FB80008E633F608E633F6E51C24FAF8C3EC968F
:101FC800ED0896EE0896EF0896501AE51C24FAF8E4
:101FD800080808E6C313F618E613F618E613F61809
:101FE800E613F6800BA81C0806A81C08860380A523
:101FF800E51C24FAF8C3EC96ED0896EE0896EF086F
:10200800964015E51C24FAF8ECC396FCED0896FDFD
:10201800EE0896FEEF0896FFE51C24FAF808080873
:10202800E6C313F618E613F618E613F618E613F6E1
:102038008B021BEA70BA8C828D838EF0EF1581D0EB
:102048001C22C01C85811CC082C083C0F0C0E07AFD
:10205800007B007E007F007D20A81C08080808E699
:10206800235401FCA81C08E626F608E633F608E621
:1020780033F608E633F6EA2AFAEB33FBEE33FEEFE3
:1020880033FFEC6003430201E51C24FAF8C3EA9627
:10209800EB0896EE0896EF0896401CE51C24FAF823
:1020A800EAC396FAEB0896FBEE0896FEEF0896FF51
:1020B800A81C08E64401F6DDA0A81C08868208864C
:0C20C800830886F008E6851C81D01C22ED
:1020D40022AF82BF0200503EEF75F002A424C5FD7A
:1020E400740135F0FE900169E0FBA3E0FC8D828E63
:1020F40083EBF0ECA3F0BF00028005BF0118800B56
:1021040090016BE024FF9288D2A82290016BE0FF3B
:1021140024FF928AD2AA22AF82BF02005028BF00B5
:10212400028005BF01088004C2A88002C2AAEF751C
:10213400F002A424C5FE740135F0FF8E828F8374EF
:07214400D4F07420A3F02287
:10214C0020F71430F6148883A88220F507E6A883BC
:0C215C0075830022E280F7E49322E02269
:102168009001C9E0FF7E000FBF00010E7410C0E0AF
:10217800E4C0E08F828E83122288AE821581158199
:102188009001CAE0FFEEB50701229001C9E0246C76
:10219800F582E43401F583E599F09001C9EEF02267
:1021A80030054A9001CBE0FF9001CCE0FEEFB50688
:1021B80005A205C205229001CCE0247CF582E43416
:1021C80001F583E0F5999001CCE0FF7E000FBF0098
:1021D800010E7410C0E0E4C0E08F828E8312228862
:0E21E800AE82AF83158115819001CCEEF022FE
:1021F6009001CDE0FF7E000FBF00010E7410C0E01D
:10220600E4C0E08F828E83122288AE82158115810A
:102216009001CEE0FFEEB50701229001CDE0248CBF
:10222600F582E43401F583E5C1F09001CDEEF022AC
:1022360030064A9001CFE0FF9001D0E0FEEFB506F0
:1022460005A206C206229001D0E0249CF582E43461
:1022560001F583E0F5C19001D0E0FF7E000FBF00DD
:10226600010E7410C0E0E4C0E08F828E83122288D3
:0E227600AE82AF83158115819001D0EEF0226B
:1022840075820022C01C85811CAE82E583FF33E485
:1022940033FD6009C3E49EFBE49FFC80048E038F3E
:1022A40004E51C24FCF808E630E70FE51C24FCF8E0
:1022B400C3E496FE08E496FF800AE51C24FCF88635
:1022C40006088607C005C006C0078B828C831222CD
:1022D400F6AE82AF8315811581D005ED600DC3E4A0
:1022E4009EFCE49FFD8C828D8380048E828F83D03C
:1022F4001C22C01C85811CAE82AF837D007C00E55E
:102304001C24FCF808E6235401FB702FE51C24FC74
:10231400F8E626F608E633F6E51C24FCF8C3EE9648
:10232400EF08965011E51C24FCF808E618C313C600
:1023340013C608F680050C8C0580C4E51C24FCF843
:10234400C3EE96EF0896400DE51C24FCF8EEC39608
:10235400FEEF0896FFE51C24FCF808E618C313C634
:1023640013C608F68D041DEC70D18E828F83D01CA9
:012374002246
:1023750000000000000000002A2B280000000000DB
:102385000000000000000000000000000000000048
:102395002C9EB4A0A1A2A434A6A7A5AE362D37388D
:1023A500271E1F20212223242526B333B62EB7B896
:1023B5009F8485868788898A8B8C8D8E8F90919254
:1023C500939495969798999A9B9C9D2F3130A3ADA0
:1023D500350405060708090A0B0C0D0E0F1011121E
:1023E500131415161718191A1B1C1DAFB1B0B5001B
:1023F50012011001EF020108091250C50101010285
:1024050003011200090264000301008064080B0047
:10241500020202010409040000010202010405246C
:102425000010010524010000042402020524060011
:10243500010705810308004009040100020A0000A4
:10244500040705020240000007058202400000095A
:1024550004020001030101000921100121012243A9
:10246500000705830308000A430005010906A101C9
:10247500050719E029E71500250195087501810271
:1024850095017508810395067508150025FF050753
:10249500190029E7810005081901290515002501FD
:1024A500950575019102950175039103C0640004BA
:1024B50003090404000C0343004800350035007887
:1024C500000C0018034F006E0065004B0065007995
:1024D5000042006F00610072006400180026034F7F
:1024E500006E0065004B006500790042006F0061D9
:1024F50000720064002000530065007200690061ED
:10250500006C00260010034100620072006F00623B
:07251500006F0074001000CC
:10251C0000000000000000000000000000000001AE
:10252C000000000000000000000000000000030498
:10253C000000020000000000010101010101010185
:10254C000000020202020202020200000303030363
:10255C000303030300000404040404040404000043
:10256C000102040810204080000001020408102021
:10257C00408000000102040810204080000001028D
:10258C000408102040800000FFFFFFFFFFFFFFFF4B
:10259C00FFFFFF00FFFF0102FFFFFFFFFFFFFFFF39
:1025AC00FFFFFFFFFFFFFFFF03FFFFFFFFFFFFFF2B
:0225BC00911775
:0B25BE0000E100000000080000000029
:0925C90000000000000000000009
:0125D2000008
:0225D300000006
:0425D500D420D4201A
:0425D90000000000FE
:0425DD0000000000FA
:00000001FF
